:02000000C6290F
:08000800FF00030E8312031335
:10001000B4000A0EB500040EB6008A110A12F329C4
:10002000C608031D14280800F53000000000000079
:1000300000000000000000000000000000000000C0
:1000400000000000000000000000FF3E031D152816
:1000500000000000000000000000000000000000A0
:1000600000000000000000000000C60B142808007B
:100070004B08CC000030CD004430CC070318CD0A2B
:100080004D088A004C088200C034F934A434B034DE
:10009000993492348234F83480349834FA30C6007B
:1000A0001020FA30C6001020FA30C6001020FA30B6
:1000B000C6001020C50B4E280800CE01CC01CD0192
:1000C000CD1908000310CC0DC80DCE0D49084E0205
:1000D000031C6C28CE004C14CD0A60288316031331
:1000E0008710831287140800831603138710831266
:1000F00087100800831603130710831207100800E7
:1001000083160313071083120714080083160313C2
:10011000861383128617080083160313861383122F
:1001200086130800831603130613831206170800AC
:100130008316031306138312061308008316031392
:100140008612831286120800831603138612831206
:10015000861608008316031306128312061608007B
:100160008316031306128312061208008316031364
:1001700086118312861108008316031386118312D9
:10018000861508008316031306118312061508004E
:100190008316031306118312061108008316031336
:1001A00086108312861008008316031386108312AC
:1001B0008614080083160313061083120614080021
:1001C000831603130610831206100800E020CE20C9
:1001D000C220BC20B020A42098208C207A206E2041
:1001E0000800E020D420C820BC20B020A420982003
:1001F0008C20802074200800DA20CE20C820B62071
:10020000AA209E20922086207A207420080083163F
:10021000031307118312071108004408CA00450898
:10022000C8000A30C9005D204E08CB003820C70046
:10023000C6088A110A12031920297F304705C70012
:10024000471C272983160810831208142B298316AC
:10025000081083120810C71C3229831688108312D5
:10026000881436298316881083128810471D3D296B
:100270008316081183120815412983160811831269
:100280000811C71D482983168811831288154C2927
:100290008316881183128811471E5329831608126A
:1002A0008312081657298316081283120812C71ED4
:1002B0005E29831688128312881662298316881293
:1002C00083128812471F692983160813831208179F
:1002D0006D298316081383120813C71F7429831608
:1002E000881383128817782983168813831288133A
:1002F00083160711831207150800073083160313AE
:100300009F00C0308100E62001308316050485007F
:10031000013083120505C500C60145030319C60A4D
:10032000C3104608031DC31402308316050485005C
:10033000023083120505C500C601023045020319CB
:10034000C60A43104608031D43140721C318AA29EF
:10035000431CC429F1200530C5004E20FC200A3082
:1003600042020318BD294208C500C6010D21013013
:10037000C5004E20420AC200AF290721F1200530F6
:10038000C5004E20E6208329E6208329D53083123C
:100390000313A000C430A100BB30A200DC30A300D6
:1003A000A401A501A601A701A801A901AA01AB0109
:1003B000AC01AD01AE01AF01BC01BD01B701B80197
:1003C000BE01BF01C001C101B001B101B201B30161
:1003D000BA01BB01B901C2014310C3100030C4000F
:1003E0008A110A127D2983120313360E8400350EFA
:0C03F0008A00340E8300FF0E7F0E09000F
:02400E00723FFF
:00000001FF
